:100000000C9479000C94A1000C94A1000C94DA0CCF
:100010000C94DA0C0C94DA0C0C94A1000C94A10052
:100020000C94A1000C94A1000C94A1000C94A100CC
:100030000C94A1000C94A1000C94A1000C94A100BC
:100040000C944C110C94A1000C94A1000C94A100F0
:100050000C94A1000C94A1000C94A1000C94A1009C
:100060000C941B100C94A100084AD73B3BCE016EA8
:1000700084BCBFFDC12F3D6C74319ABD56833DDAFF
:100080003D00C77F11BED9E4BB4C3E916BAAAABE0E
:10009000000000803F000000000800020100000393
:1000A0000407000000000000000001020408102006
:1000B00040800102040810200102040810200404FA
:1000C0000404040404040202020202020303030300
:1000D00003030000000023002600290000000000A8
:1000E000250028002B0000000000240027002A0023
:1000F000390F11241FBECFEFD8E0DEBFCDBF11E016
:10010000A0E0B1E0E6E6F2E302C005900D92A6346D
:10011000B107D9F722E0A6E4B1E001C01D92A73BE8
:10012000B207E1F710E0C2EFD0E004C02297FE0171
:100130000E94A116C03FD107C9F70E9456080C942F
:1001400031190C9400000F931F93CF93DF938C0110
:100150000E94BD020E946C0327E2FC01D8010190BD
:100160000D922A95E1F78FE190E00E944811EC0191
:1001700020E04BE06CE00E94A60D40E855E260E014
:1001800070E0CE010E94D60DF801D0A7C7A3DF9181
:10019000CF911F910F91089580916F01811107C038
:1001A00086E491E00E94A30081E080936F0186E4E1
:1001B00091E0089561E0FC0147A150A52091E8017C
:1001C0003091E9014217530709F060E0862F089546
:1001D000CF93DF93EC018FA198A5DC01ED91FC9109
:1001E0000480F581E02D0995892BA1F08FA198A5B8
:1001F000DC01ED91FC910284F385E02D09958FA13E
:1002000098A5DC01ED91FC910680F781E02D099520
:100210007AE002C070E080E2682F80E0DF91CF9149
:100220000895DB016D917C91FC0187A190A561157A
:10023000710581F0DB010D900020E9F7AD0141501F
:100240005109461B570BDC01ED91FC910280F381B3
:10025000E02D099408958F929F92AF92BF92CF9212
:10026000DF92EF92FF920F931F93CF93DF93CDB75F
:10027000DEB768970FB6F894DEBF0FBECDBF8C0116
:100280007B01DB0118968D909C9019974AE0B40190
:10029000CE0107960E941F0966E071E0CE0101962B
:1002A0000E94D108BE01695F7F4FCE0101960E9476
:1002B000C009BC01CE0143960E94FE08CE01019602
:1002C0000E946308CE0107960E946308C12CD12CBE
:1002D000A12CB12CD701A814B9040CF049C0149674
:1002E000ED91FC911597EC0DFD1D628173814AE043
:1002F000CE0101960E941F09D7011496ED91FC9141
:100300001597EC0DFD1D608171814AE0CE010D96BF
:100310000E941F0968E071E0CE0107960E94D10893
:10032000BE01635F7F4FCE0107960E94C0096AE05D
:1003300071E00E94D309BE016F5F7F4F0E94C00928
:10034000BC01CE0143960E947709CE0107960E9418
:100350006308CE010D960E946308CE0101960E94AB
:100360006308BFEFAB1ABB0AE4E0CE0ED11CB2CFDC
:100370006D917D918D919C910E94B2146B017C01D5
:100380006CE071E0CE0107960E94D108BE01695F62
:100390007F4FCE0101960E94FE08B601CE01019664
:1003A0000E94ED096EE071E00E94D309BC01CE010C
:1003B00043960E947709CE0101960E946308CE0100
:1003C00007960E94630860E171E0CE0143960E94A7
:1003D0007E09BE016D5E7F4FCE0101960E94FE0830
:1003E000BE016F5F7F4FC8010E941101CE010196CF
:1003F0000E946308CE0143960E94630868960FB678
:10040000F894DEBF0FBECDBFDF91CF911F910F914A
:10041000FF90EF90DF90CF90BF90AF909F908F9024
:100420000895CF93DF93EC010E94020A8AEE91E0D7
:100430000E94FD0E46E656E666EA7FE3CE010E9484
:100440002A0A60E0CE01DF91CF910C94E60ACF92A8
:10045000DF92EF92FF920F931F93CF93DF93CDB76D
:10046000DEB72C970FB6F894DEBF0FBECDBF8C0160
:10047000BC01CE0101960E94870B29813A814B81F4
:100480005C816D817E818F8198850E94F31320E0CD
:1004900030E0A9010E9480136B017C0120E030E074
:1004A000A9010E94461487FF0AC02BED3FE049ECEA
:1004B00050E4C701B6010E9480136B017C012BED53
:1004C0003FE049EC50E4C701B6010E94BA15181686
:1004D00054F42BED3FE049EC50E4C701B6010E9413
:1004E0007F136B017C0120E030E044E353E4C7015B
:1004F000B6010E94C5152BED3FE049E450E40E948F
:100500004A146B017C0120E030E044EB53E40E948C
:10051000BA1587FD09C020E030E044EB53E4C70181
:10052000B6010E947F1311C020E030E0A901C7018D
:10053000B6010E94461487FF0AC020E030E044EB79
:1005400053E4C701B6010E9480136B017C01F801DE
:10055000C482D582E682F782C701B6012C960FB617
:10056000F894DEBF0FBECDBFDF91CF911F910F91E9
:10057000FF90EF90DF90CF900895AF92BF92CF920F
:10058000DF92EF92FF920F931F93CF93DF93CDB73C
:10059000DEB728970FB6F894DEBF0FBECDBF8C0133
:1005A000FC0111927F012FEF3FEF4FEF5FEF6FEFF5
:1005B0007FEFCF010E945E046801F7E0CF0ED11CEF
:1005C0002FEF3FEF4FEF5FEF6FEF7FEFC6010E941E
:1005D0005E0458018DE0A80EB11C20E030E04FEF22
:1005E0005FEF6FEF7FEFC5010E94A30520E030E0D1
:1005F0004FEF5FEF6FEF7FEFC80143960E94A305B7
:1006000020E030E04FEF5FEF6FEF7FEFC8014996DA
:100610000E94A305015E1F4FC8010E94110221E044
:1006200030E042E050E063E070E0CE0101960E94CD
:100630005E0486E0FE013196D70101900D928A9505
:10064000E1F76FEF70E0C7010E94920425E030E00F
:1006500044E050E066E070E0CE0101960E945E0446
:1006600086E0FE013196D60101900D928A95E1F760
:100670006FEF70E0C6010E94920420E030E04FE08E
:1006800050E06EE070E0CE0101960E94A30586E086
:10069000FE013196D50101900D928A95E1F7CE01C8
:1006A00001960E94110288E0FE013196D801019066
:1006B0000D928A95E1F728960FB6F894DEBF0FBE2B
:1006C000CDBFDF91CF911F910F91FF90EF90DF9001
:1006D000CF90BF90AF90089580919E01811107C087
:1006E00087E791E00E94BD0281E080939E0187E749
:1006F00091E00895FC01808108958F929F92AF92BE
:10070000BF92CF92DF92EF92FF920F931F93CF93FE
:10071000DF93CDB7DEB727970FB6F894DEBF0FBED5
:10072000CDBF5C014B01CB014F960E9427020E9476
:10073000B2146B017C0180E290E00E9448118C01B0
:100740006AE070E0C4010D960E94A2070115110530
:1007500029F0F801608371838283938381E090E0C4
:100760009E838D8389E090E09C838B8384E290E07C
:100770000E94481189839A83FC01D80180E090E0AF
:100780002D813E818217930778F4309749F04D917F
:100790005D916D917C911397408351836283738344
:1007A000019634961496ECCFB601882777FD809594
:1007B000982F0E94E514AB01BC019E012F5F3F4FB3
:1007C000C5010E94B00489819A810E944A11C80122
:1007D0000E944A11C50127960FB6F894DEBF0FBEDE
:1007E000CDBFDF91CF911F910F91FF90EF90DF90E0
:1007F000CF90BF90AF909F908F900895CF93DF934D
:10080000EC0101960E945104CE010796DF91CF9131
:100810000C945104CF93DF93EC0101960E9496044F
:10082000CE010796DF91CF910C949604CF93DF937E
:10083000EC0101960E94A304CE010796DF91CF91AF
:100840000C94A304CF93DF93EC0101960E94A304C0
:10085000CE010796DF91CF910C949604CF93DF934E
:10086000EC0101960E949604CE010796DF91CF918C
:100870000C94A304463659F02CF4403281F04236F1
:1008800041F008954C3649F0423729F008950C9410
:100890000A040C9416040C9422040C942E040C9458
:1008A000FE03CF93DF93EC0160E08A810E949C12EB
:1008B00060E08C81DF91CF910C949C12EF92FF92BB
:1008C0000F931F93CF93DF93EC01CB018A01790142
:1008D0001816190604F514161506ECF4121613066C
:1008E000D4F4798368835B834A833D832C8361E0FE
:1008F0000E94631261E0802F0E94631261E08E2DDE
:100900000E946312CE01DF91CF911F910F91FF9052
:10091000EF900C945104DF91CF911F910F91FF90B4
:10092000EF900895FC0180810C94DB11CF93DF934D
:10093000EC0161E08A810E949C1260E08C81DF9171
:10094000CF910C949C12CF93DF93EC0160E08A81ED
:100950000E949C1261E08C81DF91CF910C949C12DB
:100960008F929F92AF92BF92CF92DF92EF92FF92BF
:100970000F931F93CF93DF9300D000D0CDB7DEB796
:100980004C018901DC0115961C921E92149788E097
:1009900090E017969C938E93169719961C921E9230
:1009A000189780E290E049835A836B837C830E948E
:1009B00048117C01F4018483F58249815A816B815D
:1009C0007C8141935193619371930E171F0709F432
:1009D000A9C0D80114962D913C911597F4018681F8
:1009E00097818217930780F537832683C901880F83
:1009F000991F880F991F0E944811D40114968C9357
:100A0000149715969C93FC01670120E030E0D40117
:100A100018968D919C9119972817390790F4309763
:100A200049F0D6014D915D916D917C914083518348
:100A3000628373832F5F3F4F3496B4E0CB0ED11C9B
:100A4000E6CFC7010E944A11F40120853185D80103
:100A500014964D915C9115975A012417350708F4A7
:100A6000590180E090E060E070E06A157B05C9F014
:100A7000D4011496ED91FC911597E80FF91FD80158
:100A8000ED90FC90E80EF91ED701CD90DD90ED9031
:100A9000FC90C082D182E282F3826F5F7F4F049626
:100AA000E4CF2417350778F0F80184819581D401CB
:100AB00018962D913C9119978217930798F5F40198
:100AC000918780872FC0A901440F551F440F551FE0
:100AD000D80114968D919C9115972817390720F706
:100AE000F80180819181840F951FD4011496ED91B6
:100AF000FC911597E40FF51F309749F0DC01CD907C
:100B0000DD90ED90FC90C082D182E282F382F4010C
:100B1000808591850196918780872F5F3F4F4C5F3D
:100B20005F4FD6CF0F900F900F900F90DF91CF9126
:100B30001F910F91FF90EF90DF90CF90BF90AF90FB
:100B40009F908F900895CF93DF93FC01EB011C16CB
:100B50001D069CF41416150684F471836083538378
:100B600042833583248361E08C2F0E94631260E00E
:100B70008C2FDF91CF910C949C12DF91CF9108952F
:100B8000DC01ED91FC91119714966D917C91159774
:100B90009B01220F331F2E0F3F1F80E090E0E217D2
:100BA000F30729F041915191840F951FF8CF0E94CE
:100BB0002B16CB010895CF93DF93EC0160E0888181
:100BC0000E949C1282E090E00E94961161E0888170
:100BD0000E949C128AE090E00E94961160E0888159
:100BE0000E949C1260E08A810E94631220E432E439
:100BF0004FE050E061E08A810E94D212CB01DF9188
:100C0000CF9108950E94DB056AE370E00E943F16D1
:100C1000CB016B3F710510F080E090E008950E94D9
:100C20000206BC01882777FD8095982F0E94E51465
:100C30002CE53FE842E250E40E944A140E94B214BC
:100C4000CB010895FC01808191810C944A11CF92CF
:100C5000DF92EF92FF920F931F93CF93DF93EC01FC
:100C60007B018C819D818C010F5F1F4F8017910745
:100C700008F042C04A815B814017510730F5099660
:100C80004817590710F5C880D9809B838A83880F3D
:100C9000991F0E94481188839983FC01D60120E0A6
:100CA00030E04C815D812417350760F4309729F0DE
:100CB0004D915C911197518340832F5F3F4F329646
:100CC0001296EFCFC6010E944A118C819D819C0132
:100CD000220F331F8017910790F4E881F981E20F0A
:100CE000F31F309729F0D7014D915C9151834083D8
:100CF00001962E5F3F4FEECF0817190710F41D83A2
:100D00000C83DF91CF911F910F91FF90EF90DF90B7
:100D1000CF9008950F931F93CF93DF93EC018B0136
:100D2000DB0114968D919C9115979D838C83089679
:100D30009B838A83880F991F0E9448118883998317
:100D4000FC0180E090E02C813D818217930790F4B4
:100D5000D8014D915C919C01220F331F420F531F0C
:100D6000309729F0DA012D913C913183208301964F
:100D70003296E9CFDF91CF911F910F910895CF92D5
:100D8000DF92EF92FF920F931F93CF93DF93CDB734
:100D9000DEB72E970FB6F894DEBF0FBECDBF8C0125
:100DA000DC0114962D913C9115972115310509F41C
:100DB00092C04D915C91220F331F240F351F6901A2
:100DC000B2E0CB1AD108C601841B950B0297B4F090
:100DD000C901FC0132974E175F0771F0CF01E08027
:100DE000F180DF017E916E91E616F70694F7ED92A1
:100DF000FC9271836083EDCFAC01E5CFF801848173
:100E000095817C01F694E7946701CC0CDD1C80FD94
:100E100053C01986188688E090E09B878A871D86D4
:100E20001C8680E190E00E94481199878887D8014C
:100E300014968D919C911597E816F90620F083E1A0
:100E400091E00E94640EF801608171816C0D7D1D3E
:100E5000CE0108960E942706F1E0EF1AF108D801AA
:100E600014968D919C911597E816F90620F083E170
:100E700091E00E94640EEE0CFF1CF801608171810C
:100E80006E0D7F1DCE0108960E942706BE01685F89
:100E90007F4FCE0101960E948A06CE0101960E94E4
:100EA000C0058C01CE0101960E942206CE01089653
:100EB0000E942206C80111C0E816F90620F083E15D
:100EC00091E00E94640ED801ED91FC91EC0DFD1DA6
:100ED0008081918102C080E090E02E960FB6F89458
:100EE000DEBF0FBECDBFDF91CF911F910F91FF905D
:100EF000EF90DF90CF9008950F931F93CF93DF93E0
:100F0000CDB7DEB727970FB6F894DEBF0FBECDBFC3
:100F1000BC01CE0101960E948A06CE0101960E9474
:100F2000BF068C01CE0101960E942206C8012796B9
:100F30000FB6F894DEBF0FBECDBFDF91CF911F91EA
:100F40000F910895CF92DF92EF92FF920F931F932C
:100F5000CF93DF93CDB7DEB72E970FB6F894DEBFF1
:100F60000FBECDBF6C018B011986188688E090E01A
:100F70009B878A871D861C8680E190E00E9448112D
:100F800099878887E12CF12CE016F10684F4C601DC
:100F90000E940F069A838983BE016F5F7F4FCE0147
:100FA00008960E9427068FEFE81AF80AEDCFF6019F
:100FB00004811581BE01685F7F4FCE0101960E94BA
:100FC0008A06CE0101960E947C076C017801CE0151
:100FD00001960E942206CE0108960E942206C701B1
:100FE000B6012E960FB6F894DEBF0FBECDBFDF91CF
:100FF000CF911F910F91FF90EF90DF90CF900895C8
:101000000895CF93DF93CDB7DEB7CB55D1090FB697
:10101000F894DEBF0FBECDBF0E94CC0029E2FC01D8
:10102000DE01119601900D922A95E1F7CE0101960D
:101030000E94DA00882381F10E946C0327E2FC0100
:10104000DE019A9601900D922A95E1F7CE018A96DB
:101050000E947A038823B1F0BE01665D7F4FCE0106
:101060008F5A9F4F0E947D03BE016F5A7F4FCE0162
:1010700001960E942B0167968EAD9FAD67970E94E7
:101080004A110AC0CE0101960E94E800AB01682F08
:10109000CE018A960E943A04C55ADF4F0FB6F894E3
:1010A000DEBF0FBECDBFDF91CF9108950E94A0118A
:1010B0000E940008C0E0D0E00E9401082097E1F300
:1010C0000E940000F9CFFC01808191810C944C17A3
:1010D000CF93DF93EC0188819981009711F00E94F2
:1010E0004C17198218821D821C821B821A82DF9182
:1010F000CF9108950F931F93CF93DF93EC018B0152
:101100006F5F7F4F888199810E94DB17009731F0D4
:10111000998388831B830A8381E001C080E0DF918B
:10112000CF911F910F910895CF93DF93EC018881A8
:101130009981892B29F08A819B818617970760F412
:10114000CE010E947A08882341F08C819D81892BF1
:1011500019F4E881F981108281E0DF91CF9108953F
:10116000EF92FF920F931F93CF93DF93EC017B01DC
:101170008A01BA010E949408811104C0CE010E9424
:10118000680807C01D830C83B701888199810E947C
:10119000B318CE01DF91CF911F910F91FF90EF9087
:1011A0000895FC011182108213821282158214822A
:1011B0006115710559F0FB0101900020E9F7AF01BD
:1011C00041505109461B570B0C94B0080895CF931A
:1011D000DF93EC01FB018617970761F06081718155
:1011E0006115710529F0448155810E94B00802C043
:1011F0000E946808CE01DF91CF910895FC01118211
:10120000108213821282158214820C94E708CF9305
:10121000DF93EC016115710561F0FB010190002085
:10122000E9F7AF0141505109461B570B0E94B00826
:1012300002C00E946808CE01DF91CF9108950F93FC
:101240001F93CF93DF93CDB7DEB762970FB6F894B5
:10125000DEBF0FBECDBF8C01CB01F8011182108221
:10126000138212821582148250E0BE016F5F7F4F9D
:101270000E94BA18BE016F5F7F4FC8010E94070924
:1012800062960FB6F894DEBF0FBECDBFDF91CF914F
:101290001F910F910895EF92FF920F931F93CF9399
:1012A000DF93EC017B010C811D816115710511F447
:1012B00080E016C04115510591F0040F151FB801CB
:1012C0000E9494088823A1F3288139818C819D8113
:1012D000B701820F931F0E94B3181D830C8381E016
:1012E000DF91CF911F910F91FF90EF900895FB0137
:1012F00044815581608171810C944B0961157105A0
:1013000059F0FB0101900020E9F7AF01415051096C
:10131000461B570B0C944B0980E00895EF92FF9207
:101320000F931F93CF93DF93CDB7DEB728970FB6F8
:10133000F894DEBF0FBECDBF7C01CB014AE050E088
:101340008E010F5F1F4FB8010E94BA18F80101907B
:101350000020E9F7AF0141505109401B510BB80182
:10136000C7010E944B0928960FB6F894DEBF0FBE46
:10137000CDBFDF91CF911F910F91FF90EF90089516
:10138000CF93DF93EC01FB01448155816081718132
:101390000E944B09811103C0CE010E946808CE0152
:1013A000DF91CF910895CF93DF93EC016115710523
:1013B00069F0FB0101900020E9F7AF0141505109AC
:1013C000461B570B0E944B09811103C0CE010E949E
:1013D0006808CE01DF91CF910895CF93DF93EC01A0
:1013E0000E948E09811103C0CE010E946808CE01BF
:1013F000DF91CF910895DC01ED91FC910190F08196
:10140000E02D099440E050E060E87FE3FC01408378
:1014100051836283738308950F931F93CF93DF9358
:10142000EB018A016EE170E08AEE91E00E94210FEB
:10143000BE018AEE91E00E94FB09B8018AEE91E0BC
:101440000E94FB098AEE91E0DF91CF911F910F91ED
:101450000C94360FCF92DF92EF92FF92CF93DF93EF
:10146000EC016A017B012EEA37E441E65FE3C70144
:10147000B6010E94461481110AC088E491EEAAE3E5
:10148000BFE388839983AA83BB8340E08FC026E6AD
:1014900036E646EA5FE3C701B6010E9446148111B1
:1014A0000AC08FE195E8ABE6BFE388839983AA83FE
:1014B000BB8341E07BC023E333E343EF5FE3C7013A
:1014C000B6010E94461481110AC086EF98E2ACE989
:1014D000BFE388839983AA83BB8342E067C020E08F
:1014E00030E040E250E4C701B6010E944614811189
:1014F0000AC08CE59FE8A2ECBFE388839983AA83A6
:10150000BB8343E053C020E030E040E850E4C70133
:10151000B6010E94461481110AC08EEA97E4A1E147
:10152000B0E488839983AA83BB8344E03FC026E666
:1015300036E646E950E4C701B6010E94461481111F
:101540000AC08AE097EDA3E2B0E488839983AA8376
:10155000BB8345E02BC023E333E343EB50E4C701F7
:10156000B6010E94461481110AC085E89BEEA1E4F1
:10157000B0E488839983AA83BB8346E017C02AE935
:1015800039E941E051E4C701B6010E9446148111D6
:101590000AC083E393E3ABE8B0E488839983AA832A
:1015A000BB8347E003C081E090E009C04295440F4F
:1015B000407E50E061E070E0CE010E940C0ADF91B5
:1015C000CF91FF90EF90DF90CF900895462F50E09D
:1015D00062E070E00E940C0A08959F92AF92BF9261
:1015E000CF92DF92EF92FF920F931F93CF93DF93EF
:1015F000CDB7DEB77B018A01ADB6BEB66EE170E055
:101600008AEE91E00E94210FB7018AEE91E00E94DC
:10161000FB098AEE91E00E94360F6EE170E08AEEDF
:1016200091E00E94210FA8016EE170E08AEE91E046
:101630000E94140F8DB79EB7801B910B0FB6F894C4
:101640009EBF0FBE8DBF01967C018AEE91E00E9485
:10165000660E6C018017910781F4912C092D10E022
:101660000C151D0554F48AEE91E00E946E0EF701F0
:10167000E00FF11F80839394F1CF8AEE91E00E94F6
:10168000360FC7010FB6F894BEBE0FBEADBEDF91D8
:10169000CF911F910F91FF90EF90DF90CF90BF906F
:1016A000AF909F900895CF93DF9300D000D000D0EB
:1016B000CDB7DEB746E050E063E070E00E94ED0A8F
:1016C000FC01628170E0762F66278381682B44815C
:1016D00050E0542F44278581482B208130E0322F61
:1016E00022278181282B3A8329835C834B837E8345
:1016F0006D833A815C817E8180E090E026960FB612
:10170000F894DEBF0FBECDBFDF91CF910895CF9289
:10171000DF92EF92FF920F931F93CF93DF9300D04E
:1017200000D000D0CDB7DEB78C017B01CB010E9489
:10173000530B29833A834B835C836D837E83F7014C
:10174000C080D180E280F38069817A81882777FD2B
:101750008095982F0E94E514A70196010E94C51557
:10176000F80160837183828393836D817E818827F2
:1017700077FD8095982F0E94E514A70196010E949D
:10178000C515F80160877187828793876B817C819B
:10179000882777FD8095982F0E94E514A701960170
:1017A0000E94C515F8016483758386839783C801F9
:1017B00026960FB6F894DEBF0FBECDBFDF91CF9156
:1017C0001F910F91FF90EF90DF90CF90089520919F
:1017D000E8013091E90128173907B9F49091A60181
:1017E0008091A701981789F0E091A601F0E0E855F3
:1017F000FE4F80812091A60130E02F5F3F4F2F7375
:1018000033272093A60190E008958FEF9FEF08956E
:101810001F93CF93DF93DC015C968D919C915D9734
:10182000009749F481E090E013969C938E93129771
:1018300080E090E03BC05196ED91FC91529750961C
:101840002C915097322F30951FB75E964C915E9732
:1018500041FB772770F941FD6095F894408177232B
:1018600011F0422B01C043234083EC012197F1F793
:1018700048E0508160FF02C0522B01C053235083C7
:10188000EC012197F1F76695415099F78081772314
:1018900011F0832301C0822B80831FBF5C968D9142
:1018A0009C915D970197F1F781E090E0DF91CF91F6
:1018B0001F9108952091E8013091E9012817390717
:1018C00081F49091A6018091A701981751F0E091C1
:1018D000A601F0E0E855FE4F8081992787FD90959D
:1018E00008958FEF9FEF08952091E8013091E9016D
:1018F0002817390771F48091A7012091A60190E083
:10190000805C9F4F821B910960E470E00E943F164B
:10191000089580E090E008952091E8013091E90178
:101920002817390739F48FB7F8941092A70110924D
:10193000A6018FBF0895E091E801F091E901E81751
:10194000F90769F4A389B4899C91858980958923D5
:101950008C931092E9011092E80181E0089580E0F3
:101960000895CF93DF93EC018A8D9B8D892BF1F045
:101970008091E8019091E9018C179D07B9F00097DB
:1019800011F00E949B0C8E8D8E7F8E8F1092A7017E
:101990001092A601D093E901C093E801EB89FC897C
:1019A00080819D89892B808381E001C080E0DF9167
:1019B000CF9108951F920F920FB60F9211242F937B
:1019C0003F934F935F936F937F938F939F93AF93C7
:1019D000BF93EF93FF93E091E801F091E901309715
:1019E00009F451C0868DA685B785958581FF04C011
:1019F0008C91892329F447C08C91892309F043C035
:101A0000A389B4899C918589809589238C93868943
:101A100097890197F1F7208D318DA685B78575855A
:101A200058E040E0C9010197F1F7842F90E09595C7
:101A30008795482F6C91672309F04068515091F7C2
:101A4000868D81FD40958091A70190E001968F736E
:101A500099272091A601281749F0A091A701B0E08D
:101A6000A855BE4F4C938093A70103C0868D81601B
:101A7000868F828D938D0197F1F7A389B4898C911C
:101A80009589892B8C93FF91EF91BF91AF919F9195
:101A90008F917F916F915F914F913F912F910F9017
:101AA0000FBE0F901F9018951F93CF93DF93EC01FB
:101AB000162F6E8D6695617081E06827812F0E94D8
:101AC0009C1261E0812F0E946312812F90E0FC0143
:101AD000E655FF4FE491E88BFC01E254FF4FE4919F
:101AE000F0E0EE0FFF1FE452FF4F859194919A8B27
:101AF000898BDF91CF911F9108951F93CF93DF932F
:101B0000EC01162F60E0812F0E9463128E8D81FD03
:101B100004C061E0812F0E949C121C87812F90E0FD
:101B2000FC01E655FF4FE491ED87FC01E254FF4FC5
:101B3000E491F0E0EE0FFF1FEE52FF4F859194917C
:101B40009F878E87DF91CF911F910895FF920F930A
:101B50001F93CF93DF93EC01F62E522F1B821A8234
:101B600008EE13E020E030E00C831D832E833F83DA
:101B700089E291E0998388831F8A1E8A198E188EC4
:101B80001B8E1A8E1D8E1C8E8E8D8E7F50FB81F9C2
:101B90008E8F642FCE010E94540D6F2DCE01DF91E8
:101BA000CF911F910F91FF900C947D0DCF93DF93F8
:101BB000EC019A01AB011B8E1A8E198E188E1F8AAA
:101BC0001E8A60E079E08DE390E00E947516C901FD
:101BD0002430310520F0B9016350710902C061E081
:101BE00070E07D8F6C8FEC85E63108F068C0B9013C
:101BF000769567956431710518F06351710902C0DB
:101C000061E070E07F8B6E8B069718F0C901059735
:101C100002C081E090E0998F888FC901880F991FD9
:101C2000820F931F96958795969587958D30910590
:101C300010F00C9702C081E090E09B8F8A8F20917A
:101C40006800E83050F091E0EE3008F490E081E078
:101C500001C0880F9A95EAF701C084E0822B809337
:101C600068002C85283038F02E3040F0263148F4BA
:101C70008CE690E008C08DE690E005C08BE690E031
:101C800002C080E090E09C8B8B8B283030F481E0A8
:101C900001C0880F2A95EAF70DC0822F90E02E3000
:101CA00010F4089701C00E9791E001C0990F8A9532
:101CB000EAF7892F8D8B8C8D9D8D0197F1F7CE01E1
:101CC000DF91CF910C94B10C0E94A51880911A025B
:101CD00090E020911B02821B9109089520911B0224
:101CE00080911A02281750F4E22FF0E0E45EFD4FD5
:101CF000808190E02F5F20931B0208958FEF9FEF6C
:101D00000895E0911B0280911A02E81730F4F0E088
:101D1000E45EFD4F808190E008958FEF9FEF08957E
:101D20000895CF92DF92EF92FF920F931F93CF937C
:101D3000DF937C01CB018A012091F601222389F0F7
:101D4000EB016B01C40ED51ECC15DD0569F0699160
:101D5000D701ED91FC910190F081E02DC70109952B
:101D6000F3CF642F0E94F20FC801DF91CF911F9132
:101D70000F91FF90EF90DF90CF900895CF93DF9376
:101D80001F92CDB7DEB769832091F6012223D1F0EF
:101D90002091F701203240F021E030E0FC01338354
:101DA000228380E090E015C08091F801E82FF0E0F8
:101DB000E750FE4F998190838F5F8093F801809365
:101DC000F70105C061E0CE0101960E94F20F81E0AB
:101DD00090E00F90DF91CF910895FC011382128261
:101DE00048EE53E060E070E0448355836683778378
:101DF00089E391E091838083089510921B021092F1
:101E00001A021092F8011092F7010C943D0F862FE0
:101E1000413208F040E26CE172E00E945B0F1092E8
:101E20001B0280931A02089521E00C94070F81E0B1
:101E30008093F601609319021092F8011092F70155
:101E400008950C94170F0F93062F21E04091F7018E
:101E500069EF71E0809119020E949F0F1092F801C2
:101E60001092F7011092F6010F91089561E00C9421
:101E7000230F8AEE91E00C94ED0E1092A90281E0FE
:101E80008093A7021092A60261E082E10E949C1258
:101E900061E083E10E949C12E9EBF0E080818E7F9B
:101EA000808380818D7F808388E48093B80085E47F
:101EB0008093BC000895413208F03FC09091A90280
:101EC0009111FCCF91E09093A9022093A7022FEFEC
:101ED00020933C0210928102240F20938002909361
:101EE000A8029091A802880F892B8093A802809164
:101EF000A602813041F41092A6028091A80280933C
:101F0000BB0085EC01C085EE8093BC008091A902E6
:101F10008130E1F380918102841710F440918102B5
:101F200022E832E0FB01D9018A2F821B841718F4C2
:101F30008D918193F9CF842F089580E008950F93B8
:101F4000413208F046C09091A9029111FCCF92E075
:101F50009093A9020093A7029FEF90933C021092E6
:101F6000810240938002FB0162E872E0DB019A2F5C
:101F7000961B941718F491919D93F9CF1092A80293
:101F80009091A802880F892B8093A8028091A602C5
:101F9000813041F41092A6028091A8028093BB0088
:101FA00085EC01C085EE8093BC00222321F0809156
:101FB000A9028230E1F380913C028F3F61F0809171
:101FC0003C02803251F080913C02803341F483E046
:101FD00007C081E005C080E003C082E001C084E06A
:101FE0000F910895613298F42091A902243089F468
:101FF00060935E02FC0180E692E0DC012A2F281B40
:10200000261718F421912D93F9CF80E0089581E0EF
:10201000089582E0089585ED8093BC008091BC0016
:1020200084FDFCCF1092A902089585EC8093BC003A
:102030001092A90208951F920F920FB60F921124C9
:102040002F933F934F935F936F937F938F939F93C0
:10205000AF93BF93EF93FF938091B900887F803651
:1020600009F49CC068F5883209F45BC090F48031B3
:1020700009F454C038F4882309F4F5C0883009F411
:102080004DC0F5C0883109F44CC0803209F45DC000
:10209000EEC0803409F468C048F4803309F455C0B8
:1020A000883309F0E4C080933C02A8C0803509F46D
:1020B0004FC0883509F45DC0883409F0D8C0D5C058
:1020C000883909F4C6C0A8F4883709F467C038F421
:1020D000883609F463C0803709F460C0C8C0883806
:1020E00009F4B7C0803909F45FC0803809F0BFC077
:1020F0005BC0803B09F485C038F4803A09F466C0BF
:10210000883A09F47EC0B3C0803C09F4A6C0883C7C
:1021100009F4A3C0883B09F489C0A9C08091A80232
:1021200010C09091810280918002981770F5E09123
:10213000810281E08E0F80938102F0E0EE57FD4F27
:1021400080818093BB0085EC85C080933C028DC06C
:10215000E091810281E08E0F809381028091BB002B
:10216000F0E0EE57FD4F80839091810280918002D4
:102170006DC0E091810281E08E0F80938102809199
:10218000BB00F0E0EE57FD4F80838091A7028111E4
:102190006CC081E08093A60284EA60C083E08093F3
:1021A000A90210923D02CFCF80913D02803208F00B
:1021B00050C0E0913D0281E08E0F80933D028091FE
:1021C000BB00F0E0E25CFD4F8083BDCF80913D021B
:1021D000803230F4E0913D02F0E0E25CFD4F10828D
:1021E0000E940B1060913D0270E0E091A202F0911C
:1021F000A3028EE392E0099510923D020E94151011
:1022000036C084E08093A90210925F0210925E02B1
:10221000E091A402F091A502099580915E028111DE
:1022200005C081E080935E0210926002E0915F023F
:1022300081E08E0F80935F02F0E0E05AFD4F8081D5
:102240008093BB0090915F0280915E02981708F422
:102250007ACF85E88093BC000AC085EC8093BC00EF
:102260001092A90204C010923C020E940B10FF9130
:10227000EF91BF91AF919F918F917F916F915F91FE
:102280004F913F912F910F900FBE0F901F90189577
:102290000C94B4160C944C171F920F920FB60F9219
:1022A00011242F933F938F939F93AF93BF9380916C
:1022B000AB029091AC02A091AD02B091AE02309110
:1022C000AA0223E0230F2D3720F40196A11DB11D92
:1022D00005C026E8230F0296A11DB11D2093AA0276
:1022E0008093AB029093AC02A093AD02B093AE0288
:1022F0008091AF029091B002A091B102B091B20270
:102300000196A11DB11D8093AF029093B002A093DE
:10231000B102B093B202BF91AF919F918F913F9163
:102320002F910F900FBE0F901F901895019739F0C5
:10233000880F991F880F991F02970197F1F7089549
:10234000789484B5826084BD84B5816084BD85B590
:10235000826085BD85B5816085BDEEE6F0E0808157
:1023600081608083E1E8F0E0108280818260808378
:10237000808181608083E0E8F0E0808181608083FB
:10238000E1EBF0E0808184608083E0EBF0E080812D
:1023900081608083EAE7F0E08081846080838081CF
:1023A0008260808380818160808380818068808377
:1023B0001092C10008951F93CF93DF93182FEB0164
:1023C00061E00E946312209711F460E004C0CF3FE7
:1023D000D10539F461E0812FDF91CF911F910C94E9
:1023E0009C12E12FF0E0EA56FF4FE491E330F9F060
:1023F00048F4E130B9F0E230A1F584B5806284BDE3
:10240000C8BD34C0E730E9F0E83019F1E43049F5EF
:1024100080918000806280938000D0938B00C09375
:102420008A0024C084B5806884BDC7BD1FC0809168
:102430008000806880938000D0938900C0938800DA
:1024400015C08091B00080688093B000C093B30045
:102450000DC08091B00080628093B000C093B40042
:1024600005C0C038D1050CF0B5CFAFCFDF91CF910B
:102470001F910895833081F028F4813099F08230E3
:10248000A1F008958730A9F08830B9F08430D1F4F4
:10249000809180008F7D03C0809180008F77809332
:1024A0008000089584B58F7702C084B58F7D84BD88
:1024B00008958091B0008F7703C08091B0008F7D28
:1024C0008093B0000895CF93DF9390E0FC01E65530
:1024D000FF4F2491FC01E254FF4F8491882349F17E
:1024E00090E0880F991FFC01EA51FF4FA591B4912C
:1024F00084529F4FFC01C591D4919FB7611108C0D0
:10250000F8948C91209582238C93888182230AC031
:10251000623051F4F8948C91322F309583238C9350
:102520008881822B888304C0F8948C91822B8C93B1
:102530009FBFDF91CF9108950F931F93CF93DF93A8
:102540001F92CDB7DEB7282F30E0F901EA56FF4FD2
:102550008491F901E655FF4F1491F901E254FF4FC0
:1025600004910023C9F0882321F069830E943A1264
:102570006981E02FF0E0EE0FFF1FE452FF4FA591BD
:10258000B4919FB7F8948C91611103C01095812389
:1025900001C0812B8C939FBF0F90DF91CF911F9132
:1025A0000F910895CF92DF92EF92FF920F931F93B6
:1025B000CF93DF9390E0FC01E655FF4FD491FC01EF
:1025C000E254FF4F7491611102C0C0E001C0CD2FF1
:1025D000DA01C901BF70672F70E0660F771F6E5276
:1025E0007F4F00E010E09801FB01E590F490F701C7
:1025F00040814D234C131EC0680179014FEFC41A6E
:10260000D40AE40AF40A081719072A073B0709F451
:1026100042C097018601E8CF68017901FFEFCF1A28
:10262000DF0AEF0AFF0A081719072A073B0799F183
:1026300097018601FB01E590F490F70140814D235D
:102640004C13EACF801B910BA20BB30B20E030E0C0
:10265000A901FB01E590F490F701F080FD22FC1246
:102660000AC0281739074A075B07A9F02F5F3F4FB9
:102670004F4F5F4FEECFA8E1B0E00E949416605F2D
:102680007F4F8F4F9F4F24E096958795779567955D
:102690002A95D1F703C060E070E0CB01DF91CF91C4
:1026A0001F910F91FF90EF90DF90CF900895CF9200
:1026B000DF92EF92FF920F931F93CF93DF936C0102
:1026C0007A01EB01E60EF71E00E010E0CE15DF0503
:1026D00061F06991D601ED91FC910190F081E02DBE
:1026E000C6010995080F191FF1CFC801DF91CF91DD
:1026F0001F910F91FF90EF90DF90CF900895505869
:10270000BB27AA270ED0FCC1EDD130F0F2D120F0CA
:1027100031F49F3F11F41EF4BDC10EF4E095E7FBC8
:10272000B3C1E92FFED180F3BA176207730784079C
:10273000950718F071F49EF516C20EF4E0950B2E75
:10274000BA2FA02D0B01B90190010C01CA01A00103
:102750001124FF27591B99F0593F50F4503E68F15E
:102760001A16F040A22F232F342F4427585FF3CF9F
:10277000469537952795A795F0405395C9F77EF470
:102780001F16BA0B620B730B840BBAF09150A1F0B9
:10279000FF0FBB1F661F771F881FC2F70EC0BA0F3F
:1027A000621F731F841F48F4879577956795B795C7
:1027B000F7959E3F08F0B3CF9395880F08F09927BF
:1027C000EE0F9795879508958DD158F080E891E0A8
:1027D00009F49EEF8ED128F040E851E059F45EEF05
:1027E00009C058C1C0C1E92FE0789BD168F3092E18
:1027F000052AC1F3261737074807590738F00E2E68
:1028000007F8E02569F0E025E0640AC0EF6307F807
:10281000009407FADB01B9019D01DC01CA01AD0199
:10282000EF9347D06DD10AD05F91552331F02BED56
:102830003FE049E450FD49EC63CF0895DF93DD2785
:10284000B92FBF7740E85FE31616170648075B0706
:1028500010F4D92F93D19F938F937F936F93F8D1D7
:10286000E8E6F0E01AD14CD12F913F914F915F9162
:1028700098D1DD2349F09058A2EA2AED3FE049ECD7
:102880005FE3D0785D274DDFDF913AC1D9D008F4FE
:1028900081E008950CD034C12CD140F023D130F028
:1028A00021F45F3F19F0F0C051115EC1F3C039D17E
:1028B00098F39923C9F35523B1F3951B550BBB2707
:1028C000AA2762177307840738F09F5F5F4F220FB4
:1028D000331F441FAA1FA9F333D00E2E3AF0E0E8AD
:1028E00030D091505040E695001CCAF729D0FE2FF9
:1028F00027D0660F771F881FBB1F2617370748078B
:10290000AB07B0E809F0BB0B802DBF01FF27935840
:102910005F4F2AF09E3F510568F0B6C025C15F3F6A
:10292000ECF3983EDCF3869577956795B795F79528
:102930009F5FC9F7880F911D9695879597F9089520
:10294000E1E0660F771F881FBB1F621773078407BC
:10295000BA0720F0621B730B840BBA0BEE1F88F7CB
:10296000E095089504D06894B111FEC00895E1D0B7
:1029700088F09F5790F0B92F9927B751A0F0D1F068
:10298000660F771F881F991F1AF0BA95C9F712C0F2
:10299000B13081F0E8D0B1E00895E5C0672F782F1D
:1029A0008827B85F39F0B93FCCF38695779567955E
:1029B000B395D9F73EF490958095709561957F4FCA
:1029C0008F4F9F4F0895E89409C097FB3EF4909570
:1029D0008095709561957F4F8F4F9F4F9923A9F0F8
:1029E000F92F96E9BB279395F69587957795679587
:1029F000B795F111F8CFFAF4BB0F11F460FF1BC0CB
:102A00006F5F7F4F8F4F9F4F16C0882311F096E95D
:102A100011C0772321F09EE8872F762F05C066230B
:102A200071F096E8862F70E060E02AF09A95660FC4
:102A3000771F881FDAF7880F9695879597F908957D
:102A4000990F0008550FAA0BE0E8FEEF16161706BF
:102A5000E807F907C0F012161306E407F50798F027
:102A6000621B730B840B950B39F40A2661F0232B40
:102A7000242B252B21F408950A2609F4A140A695BC
:102A80008FEF811D811D089597F99F6780E870E0A1
:102A900060E008959FEF80EC0895DF93CF931F933C
:102AA0000F93FF92EF92DF927B018C01689405C037
:102AB000DA2EEF0176D0FE01E894A59125913591AB
:102AC00045915591AEF3EF012CDEFE019701A8016F
:102AD000DA9479F7DF90EF90FF900F911F91CF91EB
:102AE000DF91089500240A941616170618060906A1
:102AF000089500240A941216130614060506089574
:102B0000092E0394000C11F4882352F0BB0F40F4FB
:102B1000BF2B11F460FF04C06F5F7F4F8F4F9F4F3B
:102B2000089557FD9058440F551F59F05F3F71F0BD
:102B30004795880F97FB991F61F09F3F79F0879524
:102B40000895121613061406551FF2CF4695F1DFAD
:102B500008C0161617061806991FF1CF869571053D
:102B6000610508940895E894BB2766277727CB0171
:102B700097F9089565DF08F48FEF08959B01AC0184
:102B800060E070E080E89FE385CE0BD0B9CFAADF8C
:102B900028F0AFDF18F0952309F076CF7BCF112412
:102BA000E3CFBFDFA0F3959FD1F3950F50E0551F02
:102BB000629FF001729FBB27F00DB11D639FAA2792
:102BC000F00DB11DAA1F649F6627B00DA11D661FE1
:102BD000829F2227B00DA11D621F739FB00DA11D02
:102BE000621F839FA00D611D221F749F3327A00DBC
:102BF000611D231F849F600D211D822F762F6A2F58
:102C000011249F5750408AF0E1F088234AF0EE0FDC
:102C1000FF1FBB1F661F771F881F91505040A9F7E9
:102C20009E3F510570F030CF9FCF5F3FECF3983E51
:102C3000DCF3869577956795B795F795E7959F5F50
:102C4000C1F7FE2B880F911D9695879597F90895EA
:102C50009B01AC019ACFAA1BBB1B51E107C0AA1F65
:102C6000BB1FA617B70710F0A61BB70B881F991F2D
:102C70005A95A9F780959095BC01CD01089597FBD1
:102C8000072E16F4009407D077FD09D00E942B166A
:102C900007FC05D03EF4909581959F4F089570955F
:102CA00061957F4F0895A1E21A2EAA1BBB1BFD015F
:102CB0000DC0AA1FBB1FEE1FFF1FA217B307E4071B
:102CC000F50720F0A21BB30BE40BF50B661F771F73
:102CD000881F991F1A9469F7609570958095909553
:102CE0009B01AC01BD01CF010895052E97FB1EF499
:102CF00000940E948C1657FD07D00E94531607FCC3
:102D000003D04EF40C948C16509540953095219537
:102D10003F4F4F4F5F4F0895909580957095619507
:102D20007F4F8F4F9F4F08950E94A516A59F900D2E
:102D3000B49F900DA49F800D911D11240895EE0F56
:102D4000FF1F0590F491E02D0994A29FB001B39F5D
:102D5000C001A39F700D811D1124911DB29F700DA4
:102D6000811D1124911D0895CF93DF938230910529
:102D700010F482E090E0E091B502F091B60220E01C
:102D800030E0A0E0B0E0309739F140815181481740
:102D90005907B8F04817590771F482819381109749
:102DA00029F013969C938E9312972CC09093B602A1
:102DB0008093B50227C02115310531F04217530722
:102DC00018F0A901DB0101C0EF019A01BD01DF018B
:102DD0000280F381E02DD7CF21153105F9F0281BB2
:102DE000390B2430310580F48A819B81611571058E
:102DF00021F0FB019383828304C09093B6028093F9
:102E0000B502FE01329644C0FE01E20FF31F81932A
:102E1000919322503109398328833AC02091B3021B
:102E20003091B402232B41F420910201309103012F
:102E30003093B4022093B30220910001309101013C
:102E40002115310541F42DB73EB740910401509151
:102E50000501241B350BE091B302F091B402E21797
:102E6000F307A0F42E1B3F0B2817390778F0AC01AD
:102E70004E5F5F4F2417350748F04E0F5F1F50938A
:102E8000B4024093B3028193919302C0E0E0F0E07A
:102E9000CF01DF91CF910895CF93DF93009709F48D
:102EA00087C0FC01329713821282C091B502D09183
:102EB000B602209781F420813181280F391F80913B
:102EC000B3029091B4028217930779F5F093B4029C
:102ED000E093B3026DC0DE0120E030E0AE17BF0723
:102EE00050F412964D915C9113979D014115510537
:102EF00009F1DA01F3CFB383A28340815181840FBA
:102F0000951F8A179B0771F48D919C911197840FDF
:102F1000951F02969183808312968D919C911397B1
:102F2000938382832115310529F4F093B602E0934F
:102F3000B5023EC0D9011396FC93EE9312974D91C2
:102F40005D91A40FB51FEA17FB0779F48081918189
:102F5000840F951F0296D90111969C938E938281BE
:102F6000938113969C938E931297E0E0F0E08A8110
:102F70009B81009719F0FE01EC01F9CFCE0102967A
:102F800028813981820F931F2091B3023091B402BE
:102F90002817390769F4309729F41092B602109275
:102FA000B50202C013821282D093B402C093B3025E
:102FB000DF91CF910895A0E0B0E0E1EEF7E10C944D
:102FC000FE18EC01CB01209719F40E94B416B8C08A
:102FD000FE01E60FF71F9E0122503109E217F307A9
:102FE00008F4ACC0D9010D911C9111970617170771
:102FF000B8F00530110508F49FC0A80144505109EC
:103000004617570708F498C002501109061B170B02
:10301000019311936D937C93CF010E944C178CC048
:103020005B01A01AB10A4E01800E911EA091B5025B
:10303000B091B602612C712C60E070E0109709F439
:1030400049C0A815B905C9F5ED90FC901197670125
:1030500042E0C40ED11CCA14DB0478F147018A187F
:103060009B08640142E0C40ED11C1296BC901297DA
:103070001396AC91B5E0CB16D10440F0B282A38395
:1030800091828082D9018D939C9309C00E5F1F4F5E
:103090000E0D1F1DF90111830083EB2DFA2F611511
:1030A000710531F0DB011396FC93EE93129744C047
:1030B000F093B602E093B5023FC06D917C911197F9
:1030C0006616770608F43B01BD0112960D90BC917F
:1030D000A02DB4CF6091B3027091B4026815790548
:1030E000E9F468167906D0F440910001509101018D
:1030F0004115510541F44DB75EB7609104017091DF
:103100000501461B570BE417F507C0F4F093B40212
:10311000E093B302F901918380830EC00E94B4163C
:103120007C01009759F0A801BE010E94AA18CE01A7
:103130000E944C17C70104C0CE0102C080E090E09D
:10314000CDB7DEB7EEE00C941A1981E090E0F89468
:103150000C943119FB01DC0102C001900D92415029
:103160005040D8F70895FB01DC0101900D9200203A
:10317000E1F708954532510520F4423010F00C94E7
:10318000C518FB011082CB010895BB274A3031F4EA
:10319000992322F4BDE2909581959F4F0C94D1180C
:1031A000BB27FB015527AA27880F991FAA1FA41721
:1031B00010F0A41B83955051B9F7A05DAA3308F015
:1031C000A95DA193009779F7B111B1931192CB0149
:1031D0000C94EA18DC01FC01672F71917723E1F769
:1031E000329704C07C916D9370836291AE17BF07D4
:1031F000C8F308952F923F924F925F926F927F9201
:103200008F929F92AF92BF92CF92DF92EF92FF92F6
:103210000F931F93CF93DF93CDB7DEB7CA1BDB0BA2
:103220000FB6F894DEBF0FBECDBF09942A88398847
:1032300048885F846E847D848C849B84AA84B9844E
:10324000C884DF80EE80FD800C811B81AA81B9815A
:10325000CE0FD11D0FB6F894DEBF0FBECDBFED016E
:063260000895F894FFCF71
:103266000000B702800028007C002C003C003E00D5
:10327600290A00496E76616C69642073756273630E
:10328600726970740000000000080C5713740CE794
:103296000B5A0C8C0C00000000BE0E910E660E6ED2
:0632A6000E810E900E00E7
:00000001FF
