:100000000C947A000C94A2000C94A2000C94E20CC4
:100010000C94E20C0C94E20C0C94A2000C94A20040
:100020000C94A2000C94A2000C94A2000C94A200C8
:100030000C94A2000C94A2000C94A2000C94A200B8
:100040000C948F110C94A2000C94A2000C94A200AA
:100050000C94A2000C94A2000C94A2000C94A20098
:100060000C945E100C94A200084AD73B3BCE016E64
:1000700084BCBFFDC12F3D6C74319ABD56833DDAFF
:100080003D00C77F11BED9E4BB4C3E916BAAAABE0E
:10009000000000803F000000000800020100000393
:1000A0000407000000000000000001020408102006
:1000B00040800102040810200102040810200404FA
:1000C0000404040404040202020202020303030300
:1000D00003030000000023002600290000000000A8
:1000E000250028002B0000000000240027002A0023
:1000F00061087C0F11241FBECFEFD8E0DEBFCDBF5B
:1001000011E0A0E0B1E0E4E0F3E302C005900D925D
:10011000A634B107D9F722E0A6E4B1E001C01D92F0
:10012000AC36B207E1F710E0C4EFD0E004C022978C
:10013000FE010E94F016C03FD107C9F70E941007C8
:100140000C9480190C940000FC0171836083089565
:10015000FC0181E04081518120919D0130919E01FF
:100160004217530709F080E00895DC018D919C91BE
:10017000DC01ED91FC910084F185E02D099521E0F1
:10018000019609F420E0822F0895CF93DF93EC01CC
:1001900088819981DC01ED91FC910480F581E02D4D
:1001A0000995892B49F188819981DC01ED91FC91B8
:1001B0000284F385E02D099588819981DC01ED9118
:1001C000FC910680F781E02D09958636C1F03CF45C
:1001D000803279F0823681F487E696E012C08C3660
:1001E00029F0823749F483E796E00BC08FE796E069
:1001F00008C08FE496E005C080E090E002C08BE587
:1002000096E0DF91CF910895DB016D917C91FC0127
:10021000808191816115710581F0DB010D900020D5
:10022000E9F7AD0141505109461B570BDC01ED9137
:10023000FC910280F381E02D099408958F929F92A2
:10024000AF92BF92CF92DF92EF92FF920F931F93E4
:10025000CF93DF93CDB7DEB768970FB6F894DEBFC4
:100260000FBECDBF8C017B01DB0118968D909C9059
:1002700019974AE0B401CE0107960E94270966E06B
:1002800071E0CE0101960E94D908BE01695F7F4FDF
:10029000CE0101960E94C809BC01CE0143960E947E
:1002A0000609CE0101960E946B08CE0107960E94B6
:1002B0006B08C12CD12CA12CB12CD701A814B904E6
:1002C0000CF049C01496ED91FC911597EC0DFD1DB5
:1002D000628173814AE0CE0101960E942709D7010D
:1002E0001496ED91FC911597EC0DFD1D60817181C7
:1002F0004AE0CE010D960E94270968E071E0CE0128
:1003000007960E94D908BE01635F7F4FCE01079612
:100310000E94C8096AE071E00E94DB09BE016F5FBC
:100320007F4F0E94C809BC01CE0143960E947F09FD
:10033000CE0107960E946B08CE010D960E946B08B5
:10034000CE0101960E946B08BFEFAB1ABB0AE4E036
:10035000CE0ED11CB2CF6D917D918D919C910E945A
:1003600001156B017C016CE071E0CE0107960E94E3
:10037000D908BE01695F7F4FCE0101960E94060930
:10038000B601CE0101960E94F5096EE071E00E946F
:10039000DB09BC01CE0143960E947F09CE01019684
:1003A0000E946B08CE0107960E946B0860E171E025
:1003B000CE0143960E948609BE016D5E7F4FCE013D
:1003C00001960E940609BE016F5F7F4FC8010E941F
:1003D0000401CE0101960E946B08CE0143960E9453
:1003E0006B0868960FB6F894DEBF0FBECDBFDF91E5
:1003F000CF911F910F91FF90EF90DF90CF90BF9022
:10040000AF909F908F900895CF93DF93EC010E945F
:100410000A0A8FE991E00E94400F46E656E666EA36
:100420007FE3CE010E94320A60E0CE01DF91CF91DE
:100430000C94EE0ACF92DF92EF92FF920F931F93EC
:10044000CF93DF93CDB7DEB72C970FB6F894DEBF0E
:100450000FBECDBF8C01BC01CE0101960E948F0B57
:1004600029813A814B815C816D817E818F81988564
:100470000E94421420E030E0A9010E94CF136B01DA
:100480007C0120E030E0A9010E94951487FF0AC09A
:100490002BED3FE049EC50E4C701B6010E94CF13B9
:1004A0006B017C012BED3FE049EC50E4C701B60144
:1004B0000E940916181654F42BED3FE049EC50E465
:1004C000C701B6010E94CE136B017C0120E030E031
:1004D00044E353E4C701B6010E9414162BED3FE03C
:1004E00049E450E40E94991420E030E044EB52E4E7
:1004F0000E94CF136B017C0120E030E044EB53E419
:100500000E94091687FD09C020E030E044EB53E467
:10051000C701B6010E94CE1311C020E030E0A9014E
:10052000C701B6010E94951487FF0AC020E030E0A1
:1005300044EB53E4C701B6010E94CF136B017C0169
:10054000F801C482D582E682F782C701B6012C96F3
:100550000FB6F894DEBF0FBECDBFDF91CF911F91D4
:100560000F91FF90EF90DF90CF900895CF93DF939E
:10057000EC0160E08A810E94EB1260E08C81DF91E7
:10058000CF910C94EB120F931F93CF93DF9300D076
:10059000CDB7DEB78C01862FF8016083718342836B
:1005A00053832483358361E02A8349830E94B212F6
:1005B00061E04981842F0E94B21261E02A81822F7A
:1005C0000E94B212C8010F900F90DF91CF911F913E
:1005D0000F910C94B602FC0180810C942A12CF93E7
:1005E000DF93EC0161E08A810E94EB1260E08C8174
:1005F000DF91CF910C94EB12CF93DF93EC0160E08D
:100600008A810E94EB1261E08C81DF91CF910C9482
:10061000EB128F929F92AF92BF92CF92DF92EF92A6
:10062000FF920F931F93CF93DF9300D000D0CDB7ED
:10063000DEB74C018901DC0115961C921E921497BD
:1006400088E090E017969C938E93169719961C92CB
:100650001E92189780E290E049835A836B837C83D3
:100660000E948B117C01F4018483F58249815A81B7
:100670006B817C8141935193619371930E171F0796
:1006800009F4A9C0D80114962D913C911597F40155
:10069000868197818217930780F537832683C90166
:1006A000880F991F880F991F0E948B11D4011496EF
:1006B0008C93149715969C93FC01670120E030E021
:1006C000D40118968D919C9119972817390790F4A9
:1006D000309749F0D6014D915D916D917C914083A9
:1006E0005183628373832F5F3F4F3496B4E0CB0E08
:1006F000D11CE6CFC7010E948D11F4012085318500
:10070000D80114964D915C9115975A01241735071D
:1007100008F4590180E090E060E070E06A157B0524
:10072000C9F0D4011496ED91FC911597E80FF91FCB
:10073000D801ED90FC90E80EF91ED701CD90DD9028
:10074000ED90FC90C082D182E282F3826F5F7F4F96
:100750000496E4CF2417350778F0F8018481958159
:10076000D40118962D913C9119978217930798F50B
:10077000F401918780872FC0A901440F551F440FB2
:10078000551FD80114968D919C91159728173907FC
:1007900020F7F80180819181840F951FD401149670
:1007A000ED91FC911597E40FF51F309749F0DC01AE
:1007B000CD90DD90ED90FC90C082D182E282F382F8
:1007C000F401808591850196918780872F5F3F4F47
:1007D0004C5F5F4FD6CF0F900F900F900F90DF912F
:1007E000CF911F910F91FF90EF90DF90CF90BF902E
:1007F000AF909F908F900895CF93FC01C62F608398
:100800007183538342833583248361E08C2F0E945C
:10081000B21260E08C2FCF910C94EB12DC01ED91C1
:10082000FC91119714966D917C9115979B01220F65
:10083000331F2E0F3F1F80E090E0E217F30729F0EF
:1008400041915191840F951FF8CF0E947A16CB01E8
:100850000895CF93DF93EC0160E088810E94EB1252
:1008600082E090E00E94E51161E088810E94EB1235
:100870008AE090E00E94E51160E088810E94EB121E
:1008800060E08A810E94B21220E432E44FE050E03E
:1008900061E08A810E942113CB01DF91CF910895FD
:1008A0000E9429046AE370E00E948E16CB016B3F20
:1008B000710510F080E090E008950E945004BC01A2
:1008C000882777FD8095982F0E9434152CE53FE806
:1008D00042E250E40E9499140E940115CB01089550
:1008E000FC01808191810C948D11CF92DF92EF9267
:1008F000FF920F931F93CF93DF93EC017B018C81C9
:100900009D818C010F5F1F4F8017910708F042C037
:100910004A815B814017510730F5099648175907FE
:1009200010F5C880D9809B838A83880F991F0E9405
:100930008B1188839983FC01D60120E030E04C8143
:100940005D812417350760F4309729F04D915C9153
:100950001197518340832F5F3F4F32961296EFCF0E
:10096000C6010E948D118C819D819C01220F331F35
:100970008017910790F4E881F981E20FF31F309717
:1009800029F0D7014D915C915183408301962E5FF0
:100990003F4FEECF0817190710F41D830C83DF912A
:1009A000CF911F910F91FF90EF90DF90CF9008951E
:1009B0000F931F93CF93DF93EC018B01DB01149610
:1009C0008D919C9115979D838C8308969B838A8338
:1009D000880F991F0E948B1188839983FC0180E006
:1009E00090E02C813D818217930790F4D8014D91BE
:1009F0005C919C01220F331F420F531F309729F047
:100A0000DA012D913C913183208301963296E9CF12
:100A1000DF91CF911F910F910895CF92DF92EF92C6
:100A2000FF920F931F93CF93DF93CDB7DEB72E972F
:100A30000FB6F894DEBF0FBECDBF8C01DC0114965B
:100A40002D913C9115972115310509F492C04D91D6
:100A50005C91220F331F240F351F6901B2E0CB1ABE
:100A6000D108C601841B950B0297B4F0C901FC01A3
:100A700032974E175F0771F0CF01E080F180DF0100
:100A80007E916E91E616F70694F7ED92FC927183D3
:100A90006083EDCFAC01E5CFF801848195817C01C5
:100AA000F694E7946701CC0CDD1C80FD53C01986D9
:100AB000188688E090E09B878A871D861C8680E1E7
:100AC00090E00E948B1199878887D80114968D91A8
:100AD0009C911597E816F90620F083E191E00E94B9
:100AE0006C0EF801608171816C0D7D1DCE01089640
:100AF0000E947504F1E0EF1AF108D80114968D9167
:100B00009C911597E816F90620F083E191E00E9488
:100B10006C0EEE0CFF1CF801608171816E0D7F1D63
:100B2000CE0108960E947504BE01685F7F4FCE011A
:100B300001960E94D804CE0101960E940E048C01F9
:100B4000CE0101960E947004CE0108960E947004A6
:100B5000C80111C0E816F90620F083E191E00E9477
:100B60006C0ED801ED91FC91EC0DFD1D8081918101
:100B700002C080E090E02E960FB6F894DEBF0FBE64
:100B8000CDBFDF91CF911F910F91FF90EF90DF903C
:100B9000CF9008950F931F93CF93DF93CDB7DEB718
:100BA00027970FB6F894DEBF0FBECDBFBC01CE01B4
:100BB00001960E94D804CE0101960E940D058C0179
:100BC000CE0101960E947004C80127960FB6F894D2
:100BD000DEBF0FBECDBFDF91CF911F910F91089562
:100BE000CF92DF92EF92FF920F931F93CF93DF93F9
:100BF000CDB7DEB72E970FB6F894DEBF0FBECDBFD0
:100C00006C018B011986188688E090E09B878A87A3
:100C10001D861C8680E190E00E948B119987888751
:100C2000E12CF12CE016F10684F4C6010E945D046B
:100C30009A838983BE016F5F7F4FCE0108960E9421
:100C400075048FEFE81AF80AEDCFF60104811581DB
:100C5000BE01685F7F4FCE0101960E94D804CE018D
:100C600001960E94CA056C017801CE0101960E948E
:100C70007004CE0108960E947004C701B6012E963A
:100C80000FB6F894DEBF0FBECDBFDF91CF911F919D
:100C90000F91FF90EF90DF90CF900895089580918D
:100CA0005701909158010E94B60280915501909190
:100CB00056010C94B60280915701909158010E9400
:100CC000EF0280915501909156010C94EF028091B2
:100CD0005701909158010E94FC028091550190911A
:100CE00056010C94FC0280915701909158010E948A
:100CF000FC0280915501909156010C94EF02809175
:100D00005701909158010E94EF02809155019091F6
:100D100056010C94FC020F931F93CF93DF938FE146
:100D200090E00E948B11EC0120E04BE06CE00E940F
:100D3000AE0D40E855E260E070E0CE010E94DE0DAD
:100D400082E090E00E948B118C01BE010E94A40001
:100D500010935A010093590186E090E00E948B1194
:100D6000EC0121E030E042E050E063E070E00E94FE
:100D7000C302D0935801C09357016FEF70E0CE01CA
:100D80000E94EB0286E090E00E948B11EC0125E0CE
:100D900030E044E050E066E070E00E94C302D0938F
:100DA0005601C09355016FEF70E0CE010E94EB0237
:100DB00086E090E00E948B11EC012AE530E04FE0E4
:100DC00050E06EE070E00E94FC03D0935401C093A9
:100DD000530188E090E00E948B11EC010E94040214
:100DE000D0935201C0935101DF91CF911F910F9188
:100DF00008958091590190915A010E94A80088237A
:100E000071F08091590190915A010E94C50000979C
:100E100011F0FC01099586E491E00C947C0E089594
:100E20000E94EF110E944E060E948B06C0E0D0E0A7
:100E30000E94F9062097E1F30E940000F9CFFC011F
:100E4000808191810C948D110F931F93CF93DF9329
:100E5000EC018B01DB0114968D919C9115979D837C
:100E60008C8308969B838A83880F991F880F991F0C
:100E70000E948B1199838883FC0120E030E04C8133
:100E80005D8124173507B8F4D8016D917C91AF01CD
:100E9000481B590B640F751F309749F0DB014D91CA
:100EA0005D916D917C9140835183628373832F5F49
:100EB0003F4F3496E4CFDF91CF911F910F9108956A
:100EC0008F929F92AF92BF92CF92DF92EF92FF925A
:100ED0000F931F93CF93DF93CDB7DEB72E970FB647
:100EE000F894DEBF0FBECDBF8C011986188688E04E
:100EF00090E09B878A871D861C8680E290E00E9496
:100F00008B11998788876AE070E0809153019091F6
:100F100054010E94F0056B017C018C859D855C016C
:100F20002FEFA21AB20A8A159B0508F049C02A853C
:100F30003B852A153B0560F509962817390740F5CA
:100F4000888499849B878A87880F991F880F991FA7
:100F50000E948B1188879987FC01D40120E030E042
:100F60004C855D852417350780F4309749F04D9105
:100F70005D916D917C91139740835183628373835C
:100F80002F5F3F4F34961496EBCFC4010E948D1112
:100F90008C859D859C01220F331F220F331F8A15DC
:100FA0009B0588F4E885F985E20FF31F309721F05F
:100FB000C082D182E282F38201962C5F3F4FEFCF55
:100FC000A816B90610F4BD86AC86809151019091A7
:100FD00052010E941A026B017C01BE01685F7F4FC3
:100FE000CE0101960E942407C701B6010E94011597
:100FF000882777FD8095982F0E943415AB01BC019E
:101000009E012F5F3F4FC8010E940903CE01019648
:101010000E941F07CE0108960E941F07C8012E9646
:101020000FB6F894DEBF0FBECDBFDF91CF911F91F9
:101030000F91FF90EF90DF90CF90BF90AF909F9077
:101040008F900895CF93DF93CDB7DEB766970FB635
:10105000F894DEBF0FBECDBFCE010C960E94600794
:101060008091590190915A010E94B50081111CC0D4
:101070008C859D85AE85BF8589839A83AB83BC8330
:10108000BE01605F7F4FCE0105960E942407BE011E
:101090006F5F7F4F8091590190915A010E941E010C
:1010A000CE0105960E941F07CE0140960E941F07A1
:1010B00066960FB6F894DEBF0FBECDBFDF91CF911D
:1010C000089522E238E044E650E060E070E086E413
:1010D00091E00C946E0EFC01808191810C949B1721
:1010E000CF93DF93EC0188819981009711F00E94E2
:1010F0009B17198218821D821C821B821A82DF9123
:10110000CF9108950F931F93CF93DF93EC018B0141
:101110006F5F7F4F888199810E942A18009731F074
:10112000998388831B830A8381E001C080E0DF917B
:10113000CF911F910F910895CF93DF93EC01888198
:101140009981892B29F08A819B818617970760F402
:10115000CE010E948208882341F08C819D81892BD9
:1011600019F4E881F981108281E0DF91CF9108952F
:10117000EF92FF920F931F93CF93DF93EC017B01CC
:101180008A01BA010E949C08811104C0CE010E940C
:10119000700807C01D830C83B701888199810E9464
:1011A0000219CE01DF91CF911F910F91FF90EF9027
:1011B0000895FC011182108213821282158214821A
:1011C0006115710559F0FB0101900020E9F7AF01AD
:1011D00041505109461B570B0C94B8080895CF9302
:1011E000DF93EC01FB018617970761F06081718145
:1011F0006115710529F0448155810E94B80802C02B
:101200000E947008CE01DF91CF910895FC011182F8
:10121000108213821282158214820C94EF08CF93ED
:10122000DF93EC016115710561F0FB010190002075
:10123000E9F7AF0141505109461B570B0E94B8080E
:1012400002C00E947008CE01DF91CF9108950F93E4
:101250001F93CF93DF93CDB7DEB762970FB6F894A5
:10126000DEBF0FBECDBF8C01CB01F8011182108211
:10127000138212821582148250E0BE016F5F7F4F8D
:101280000E940919BE016F5F7F4FC8010E940F09BC
:1012900062960FB6F894DEBF0FBECDBFDF91CF913F
:1012A0001F910F910895EF92FF920F931F93CF9389
:1012B000DF93EC017B010C811D816115710511F437
:1012C00080E016C04115510591F0040F151FB801BB
:1012D0000E949C088823A1F3288139818C819D81FB
:1012E000B701820F931F0E9402191D830C8381E0B6
:1012F000DF91CF911F910F91FF90EF900895FB0127
:1013000044815581608171810C9453096115710587
:1013100059F0FB0101900020E9F7AF01415051095C
:10132000461B570B0C94530980E00895EF92FF92EF
:101330000F931F93CF93DF93CDB7DEB728970FB6E8
:10134000F894DEBF0FBECDBF7C01CB014AE050E078
:101350008E010F5F1F4FB8010E940919F80101901B
:101360000020E9F7AF0141505109401B510BB80172
:10137000C7010E94530928960FB6F894DEBF0FBE2E
:10138000CDBFDF91CF911F910F91FF90EF90089506
:10139000CF93DF93EC01FB01448155816081718122
:1013A0000E945309811103C0CE010E947008CE0132
:1013B000DF91CF910895CF93DF93EC016115710513
:1013C00069F0FB0101900020E9F7AF01415051099C
:1013D000461B570B0E945309811103C0CE010E9486
:1013E0007008CE01DF91CF910895CF93DF93EC0188
:1013F0000E949609811103C0CE010E947008CE019F
:10140000DF91CF910895DC01ED91FC910190F08185
:10141000E02D099440E050E060E87FE3FC01408368
:1014200051836283738308950F931F93CF93DF9348
:10143000EB018A016EE170E08FE991E00E94640F98
:10144000BE018FE991E00E94030AB8018FE991E0A3
:101450000E94030A8FE991E0DF91CF911F910F91D4
:101460000C94790FCF92DF92EF92FF92CF93DF939C
:10147000EC016A017B012EEA37E441E65FE3C70134
:10148000B6010E94951481110AC088E491EEAAE386
:10149000BFE388839983AA83BB8340E08FC026E69D
:1014A00036E646EA5FE3C701B6010E949514811152
:1014B0000AC08FE195E8ABE6BFE388839983AA83EE
:1014C000BB8341E07BC023E333E343EF5FE3C7012A
:1014D000B6010E94951481110AC086EF98E2ACE92A
:1014E000BFE388839983AA83BB8342E067C020E07F
:1014F00030E040E250E4C701B6010E94951481112A
:101500000AC08CE59FE8A2ECBFE388839983AA8395
:10151000BB8343E053C020E030E040E850E4C70123
:10152000B6010E94951481110AC08EEA97E4A1E1E8
:10153000B0E488839983AA83BB8344E03FC026E656
:1015400036E646E950E4C701B6010E9495148111C0
:101550000AC08AE097EDA3E2B0E488839983AA8366
:10156000BB8345E02BC023E333E343EB50E4C701E7
:10157000B6010E94951481110AC085E89BEEA1E492
:10158000B0E488839983AA83BB8346E017C02AE925
:1015900039E941E051E4C701B6010E949514811177
:1015A0000AC083E393E3ABE8B0E488839983AA831A
:1015B000BB8347E003C081E090E009C04295440F3F
:1015C000407E50E061E070E0CE010E94140ADF919D
:1015D000CF91FF90EF90DF90CF900895462F50E08D
:1015E00062E070E00E94140A08959F92AF92BF9249
:1015F000CF92DF92EF92FF920F931F93CF93DF93DF
:10160000CDB7DEB77B018A01ADB6BEB66EE170E044
:101610008FE991E00E94640FB7018FE991E00E9489
:10162000030A8FE991E00E94790F6EE170E08FE983
:1016300091E00E94640FA8016EE170E08FE991E0F3
:101640000E94570F8DB79EB7801B910B0FB6F89471
:101650009EBF0FBE8DBF01967C018FE991E00E9475
:10166000A90E6C018017910781F4912C092D10E0CF
:101670000C151D0554F48FE991E00E94B10EF7019D
:10168000E00FF11F80839394F1CF8FE991E00E94E6
:10169000790FC7010FB6F894BEBE0FBEADBEDF9185
:1016A000CF911F910F91FF90EF90DF90CF90BF905F
:1016B000AF909F900895CF93DF9300D000D000D0DB
:1016C000CDB7DEB746E050E063E070E00E94F50A77
:1016D000FC01628170E0762F66278381682B44814C
:1016E00050E0542F44278581482B208130E0322F51
:1016F00022278181282B3A8329835C834B837E8335
:101700006D833A815C817E8180E090E026960FB601
:10171000F894DEBF0FBECDBFDF91CF910895CF9279
:10172000DF92EF92FF920F931F93CF93DF9300D03E
:1017300000D000D0CDB7DEB78C017B01CB010E9479
:101740005B0B29833A834B835C836D837E83F70134
:10175000C080D180E280F38069817A81882777FD1B
:101760008095982F0E943415A70196010E941416A7
:10177000F80160837183828393836D817E818827E2
:1017800077FD8095982F0E943415A70196010E943D
:101790001416F80160877187828793876B817C813B
:1017A000882777FD8095982F0E943415A701960110
:1017B0000E941416F8016483758386839783C80199
:1017C00026960FB6F894DEBF0FBECDBFDF91CF9146
:1017D0001F910F91FF90EF90DF90CF90089520918F
:1017E0009D0130919E0128173907B9F490915B0152
:1017F00080915C01981789F0E0915B01F0E0E35A79
:10180000FE4F808120915B0130E02F5F3F4F2F73AF
:10181000332720935B0190E008958FEF9FEF0895A9
:101820001F93CF93DF93DC015C968D919C915D9724
:10183000009749F481E090E013969C938E93129761
:1018400080E090E03BC05196ED91FC91529750960C
:101850002C915097322F30951FB75E964C915E9722
:1018600041FB772770F941FD6095F894408177231B
:1018700011F0422B01C043234083EC012197F1F783
:1018800048E0508160FF02C0522B01C053235083B7
:10189000EC012197F1F76695415099F78081772304
:1018A00011F0832301C0822B80831FBF5C968D9132
:1018B0009C915D970197F1F781E090E0DF91CF91E6
:1018C0001F91089520919D0130919E01281739079D
:1018D00081F490915B0180915C01981751F0E09147
:1018E0005B01F0E0E35AFE4F8081992787FD9095D8
:1018F00008958FEF9FEF089520919D0130919E01F3
:101900002817390771F480915C0120915B0190E008
:10191000805C9F4F821B910960E470E00E948E16EC
:10192000089580E090E0089520919D0130919E01FE
:101930002817390739F48FB7F89410925C01109288
:101940005B018FBF0895E0919D01F0919E01E81722
:10195000F90769F4A389B4899C91858980958923C5
:101960008C9310929E0110929D0181E0089580E079
:101970000895CF93DF93EC018A8D9B8D892BF1F035
:1019800080919D0190919E018C179D07B9F0009761
:1019900011F00E94A30C8E8D8E7F8E8F10925C01B1
:1019A00010925B01D0939E01C0939D01EB89FC894D
:1019B00080819D89892B808381E001C080E0DF9157
:1019C000CF9108951F920F920FB60F9211242F936B
:1019D0003F934F935F936F937F938F939F93AF93B7
:1019E000BF93EF93FF93E0919D01F0919E0130979B
:1019F00009F451C0868DA685B785958581FF04C001
:101A00008C91892329F447C08C91892309F043C024
:101A1000A389B4899C918589809589238C93868933
:101A200097890197F1F7208D318DA685B78575854A
:101A300058E040E0C9010197F1F7842F90E09595B7
:101A40008795482F6C91672309F04068515091F7B2
:101A5000868D81FD409580915C0190E001968F73A9
:101A6000992720915B01281749F0A0915C01B0E013
:101A7000A35ABE4F4C9380935C0103C0868D816056
:101A8000868F828D938D0197F1F7A389B4898C910C
:101A90009589892B8C93FF91EF91BF91AF919F9185
:101AA0008F917F916F915F914F913F912F910F9007
:101AB0000FBE0F901F9018951F93CF93DF93EC01EB
:101AC000162F6E8D6695617081E06827812F0E94C8
:101AD000EB1261E0812F0E94B212812F90E0FC0195
:101AE000E655FF4FE491E88BFC01E254FF4FE4918F
:101AF000F0E0EE0FFF1FE452FF4F859194919A8B17
:101B0000898BDF91CF911F9108951F93CF93DF931E
:101B1000EC01162F60E0812F0E94B2128E8D81FDA4
:101B200004C061E0812F0E94EB121C87812F90E09E
:101B3000FC01E655FF4FE491ED87FC01E254FF4FB5
:101B4000E491F0E0EE0FFF1FEE52FF4F859194916C
:101B50009F878E87DF91CF911F910895FF920F93FA
:101B60001F93CF93DF93EC01F62E522F1B821A8224
:101B700008EE13E020E030E00C831D832E833F83CA
:101B800089E291E0998388831F8A1E8A198E188EB4
:101B90001B8E1A8E1D8E1C8E8E8D8E7F50FB81F9B2
:101BA0008E8F642FCE010E945C0D6F2DCE01DF91D0
:101BB000CF911F910F91FF900C94850DCF93DF93E0
:101BC000EC019A01AB011B8E1A8E198E188E1F8A9A
:101BD0001E8A60E079E08DE390E00E94C416C9019E
:101BE0002430310520F0B9016350710902C061E071
:101BF00070E07D8F6C8FEC85E63108F068C0B9012C
:101C0000769567956431710518F06351710902C0CA
:101C100061E070E07F8B6E8B069718F0C901059725
:101C200002C081E090E0998F888FC901880F991FC9
:101C3000820F931F96958795969587958D30910580
:101C400010F00C9702C081E090E09B8F8A8F20916A
:101C50006800E83050F091E0EE3008F490E081E068
:101C600001C0880F9A95EAF701C084E0822B809327
:101C700068002C85283038F02E3040F0263148F4AA
:101C80008CE690E008C08DE690E005C08BE690E021
:101C900002C080E090E09C8B8B8B283030F481E098
:101CA00001C0880F2A95EAF70DC0822F90E02E30F0
:101CB00010F4089701C00E9791E001C0990F8A9522
:101CC000EAF7892F8D8B8C8D9D8D0197F1F7CE01D1
:101CD000DF91CF910C94B90C0E94F418FC0181E0C3
:101CE0008083118212821382148245835683678314
:101CF00070873287218708950F931F93CF93DF93C7
:101D0000EC018881882301F10E94D91109811A818F
:101D10002B813C81601B710B820B930B0D811E810B
:101D20002F813885601771078207930768F00E943A
:101D3000D91169837A838B839C83E985FA85DF9146
:101D4000CF911F910F910994DF91CF911F910F9126
:101D500008958091CF0190E02091D001821B9109DC
:101D600008952091D0018091CF01281750F4E22FDF
:101D7000F0E0EF52FE4F808190E02F5F2093D00182
:101D800008958FEF9FEF0895E091D0018091CF01EA
:101D9000E81730F4F0E0EF52FE4F808190E00895B4
:101DA0008FEF9FEF08950895CF92DF92EF92FF9209
:101DB0000F931F93CF93DF937C01CB018A01209176
:101DC000AB01222389F0EB016B01C40ED51ECC15AB
:101DD000DD0569F06991D701ED91FC910190F081E9
:101DE000E02DC7010995F3CF642F0E943510C8017B
:101DF000DF91CF911F910F91FF90EF90DF90CF90E7
:101E00000895CF93DF931F92CDB7DEB769832091FA
:101E1000AB012223D1F02091AC01203240F021E02F
:101E200030E0FC013383228380E090E015C0809194
:101E3000AD01E82FF0E0E255FE4F998190838F5F6E
:101E40008093AD018093AC0105C061E0CE010196A5
:101E50000E94351081E090E00F90DF91CF910895BE
:101E6000FC011382128248EE53E060E070E044838C
:101E700055836683778389E391E091838083089516
:101E80001092D0011092CF011092AD011092AC01CE
:101E90000C94800F862F413208F040E261ED71E032
:101EA0000E949E0F1092D0018093CF01089521E0EF
:101EB0000C944A0F81E08093AB016093CE011092A5
:101EC000AD011092AC0108950C945A0F0F93062F98
:101ED00021E04091AC016EEA71E08091CE010E9458
:101EE000E20F1092AD011092AC011092AB010F9174
:101EF000089561E00C94660F8FE991E00C94300F27
:101F000010925E0281E080935C0210925B0261E0BD
:101F100082E10E94EB1261E083E10E94EB12E9EBA7
:101F2000F0E080818E7F808380818D7F808388E454
:101F30008093B80085E48093BC000895413208F096
:101F40003FC090915E029111FCCF91E090935E02B0
:101F500020935C022FEF2093F10110923602240FA0
:101F60002093350290935D0290915D02880F892B3A
:101F700080935D0280915B02813041F410925B029C
:101F800080915D028093BB0085EC01C085EE80935B
:101F9000BC0080915E028130E1F3809136028417AB
:101FA00010F44091360227E332E0FB01D9018A2F79
:101FB000821B841718F48D918193F9CF842F089593
:101FC00080E008950F93413208F046C090915E0280
:101FD0009111FCCF92E090935E0200935C029FEF20
:101FE0009093F1011092360240933502FB0167E3B2
:101FF00072E0DB019A2F961B941718F491919D9330
:10200000F9CF10925D0290915D02880F892B809329
:102010005D0280915B02813041F410925B028091FD
:102020005D028093BB0085EC01C085EE8093BC000F
:10203000222321F080915E028230E1F38091F10150
:102040008F3F61F08091F101803251F08091F10178
:10205000803341F483E007C081E005C080E003C025
:1020600082E001C084E00F910895613298F42091DC
:102070005E02243089F460931302FC0185E192E052
:10208000DC012A2F281B261718F421912D93F9CF54
:1020900080E0089581E0089582E0089585ED8093C1
:1020A000BC008091BC0084FDFCCF10925E020895BC
:1020B00085EC8093BC0010925E0208951F920F92EF
:1020C0000FB60F9211242F933F934F935F936F930B
:1020D0007F938F939F93AF93BF93EF93FF938091E1
:1020E000B900887F803609F49CC068F5883209F40D
:1020F0005BC090F4803109F454C038F4882309F4AB
:10210000F5C0883009F44DC0F5C0883109F44CC0E1
:10211000803209F45DC0EEC0803409F468C048F430
:10212000803309F455C0883309F0E4C08093F1018D
:10213000A8C0803509F44FC0883509F45DC08834E3
:1021400009F0D8C0D5C0883909F4C6C0A8F48837CA
:1021500009F467C038F4883609F463C0803709F49D
:1021600060C0C8C0883809F4B7C0803909F45FC0BE
:10217000803809F0BFC05BC0803B09F485C038F4EB
:10218000803A09F466C0883A09F47EC0B3C0803C46
:1021900009F4A6C0883C09F4A3C0883B09F489C0AF
:1021A000A9C080915D0210C09091360280913502E5
:1021B000981770F5E091360281E08E0F8093360219
:1021C000F0E0E95CFD4F80818093BB0085EC85C029
:1021D0008093F1018DC0E091360281E08E0F8093F3
:1021E00036028091BB00F0E0E95CFD4F8083909166
:1021F0003602809135026DC0E091360281E08E0F8B
:10220000809336028091BB00F0E0E95CFD4F808353
:1022100080915C0281116CC081E080935B0284EA52
:1022200060C083E080935E021092F201CFCF809174
:10223000F201803208F050C0E091F20181E08E0F8F
:102240008093F2018091BB00F0E0ED50FE4F80835F
:10225000BDCF8091F201803230F4E091F201F0E0E4
:10226000ED50FE4F10820E944E106091F20170E01E
:10227000E0915702F091580283EF91E00995109296
:10228000F2010E94581036C084E080935E021092E2
:10229000140210921302E0915902F0915A0209952A
:1022A00080911302811105C081E080931302109286
:1022B0001502E091140281E08E0F80931402F0E089
:1022C000EB5EFD4F80818093BB0090911402809162
:1022D0001302981708F47ACF85E88093BC000AC0EF
:1022E00085EC8093BC0010925E0204C01092F10154
:1022F0000E944E10FF91EF91BF91AF919F918F91EE
:102300007F916F915F914F913F912F910F900FBEF1
:102310000F901F9018950C9403170C949B171F9205
:102320000F920FB60F9211242F933F938F939F9389
:10233000AF93BF938091600290916102A09162027D
:10234000B091630230915F0223E0230F2D3720F418
:102350000196A11DB11D05C026E8230F0296A11DFF
:10236000B11D20935F028093600290936102A0935D
:102370006202B09363028091640290916502A09121
:102380006602B09167020196A11DB11D809364029F
:1023900090936502A0936602B0936702BF91AF91DC
:1023A0009F918F913F912F910F900FBE0F901F9093
:1023B00018952FB7F8946091600270916102809136
:1023C0006202909163022FBF0895019739F0880F40
:1023D000991F880F991F02970197F1F70895789434
:1023E00084B5826084BD84B5816084BD85B582601A
:1023F00085BD85B5816085BDEEE6F0E080818160B8
:102400008083E1E8F0E010828081826080838081B7
:1024100081608083E0E8F0E0808181608083E1EB8F
:10242000F0E0808184608083E0EBF0E08081816077
:102430008083EAE7F0E0808184608083808182602D
:102440008083808181608083808180688083109216
:10245000C10008951F93CF93DF93182FEB0161E024
:102460000E94B212209711F460E004C0CF3FD10562
:1024700039F461E0812FDF91CF911F910C94EB1221
:10248000E12FF0E0EA56FF4FE491E330F9F048F431
:10249000E130B9F0E230A1F584B5806284BDC8BDF9
:1024A00034C0E730E9F0E83019F1E43049F58091C3
:1024B0008000806280938000D0938B00C0938A005C
:1024C00024C084B5806884BDC7BD1FC080918000D2
:1024D000806880938000D0938900C093880015C0E5
:1024E0008091B00080688093B000C093B3000DC0AD
:1024F0008091B00080628093B000C093B40005C0AA
:10250000C038D1050CF0B5CFAFCFDF91CF911F917F
:102510000895833081F028F4813099F08230A1F061
:1025200008958730A9F08830B9F08430D1F48091D3
:1025300080008F7D03C0809180008F778093800022
:10254000089584B58F7702C084B58F7D84BD0895CA
:102550008091B0008F7703C08091B0008F7D809311
:10256000B0000895CF93DF9390E0FC01E655FF4F54
:102570002491FC01E254FF4F8491882349F190E0BB
:10258000880F991FFC01EA51FF4FA591B491845225
:102590009F4FFC01C591D4919FB7611108C0F89479
:1025A0008C91209582238C93888182230AC062308B
:1025B00051F4F8948C91322F309583238C93888139
:1025C000822B888304C0F8948C91822B8C939FBFBC
:1025D000DF91CF9108950F931F93CF93DF931F92B5
:1025E000CDB7DEB7282F30E0F901EA56FF4F8491CE
:1025F000F901E655FF4F1491F901E254FF4F0491A0
:102600000023C9F0882321F069830E94891269811F
:10261000E02FF0E0EE0FFF1FE452FF4FA591B491C1
:102620009FB7F8948C91611103C01095812301C06C
:10263000812B8C939FBF0F90DF91CF911F910F91B2
:102640000895CF92DF92EF92FF920F931F93CF9353
:10265000DF9390E0FC01E655FF4FD491FC01E2547A
:10266000FF4F7491611102C0C0E001C0CD2FDA01AB
:10267000C901BF70672F70E0660F771F6E527F4FE2
:1026800000E010E09801FB01E590F490F701408133
:102690004D234C131EC0680179014FEFC41AD40AB0
:1026A000E40AF40A081719072A073B0709F442C08D
:1026B00097018601E8CF68017901FFEFCF1ADF0AA1
:1026C000EF0AFF0A081719072A073B0799F1970134
:1026D0008601FB01E590F490F70140814D234C13F6
:1026E000EACF801B910BA20BB30B20E030E0A901D5
:1026F000FB01E590F490F701F080FD22FC120AC086
:10270000281739074A075B07A9F02F5F3F4F4F4F44
:102710005F4FEECFA8E1B0E00E94E316605F7F4F0D
:102720008F4F9F4F24E096958795779567952A95CB
:10273000D1F703C060E070E0CB01DF91CF911F9132
:102740000F91FF90EF90DF90CF900895CF92DF929E
:10275000EF92FF920F931F93CF93DF936C017A0157
:10276000EB01E60EF71E00E010E0CE15DF0561F08C
:102770006991D601ED91FC910190F081E02DC601A7
:102780000995080F191FF1CFC801DF91CF911F9153
:102790000F91FF90EF90DF90CF9008955058BB2796
:1027A000AA270ED0FCC1EDD130F0F2D120F031F4E7
:1027B0009F3F11F41EF4BDC10EF4E095E7FBB3C1D9
:1027C000E92FFED180F3BA176207730784079507D4
:1027D00018F071F49EF516C20EF4E0950B2EBA2F88
:1027E000A02D0B01B90190010C01CA01A001112417
:1027F000FF27591B99F0593F50F4503E68F11A16C3
:10280000F040A22F232F342F4427585FF3CF469553
:1028100037952795A795F0405395C9F77EF41F1675
:10282000BA0B620B730B840BBAF09150A1F0FF0F3F
:10283000BB1F661F771F881FC2F70EC0BA0F621F2B
:10284000731F841F48F4879577956795B795F7951B
:102850009E3F08F0B3CF9395880F08F09927EE0FAD
:102860009795879508958DD158F080E891E009F407
:102870009EEF8ED128F040E851E059F45EEF09C098
:1028800058C1C0C1E92FE0789BD168F3092E052A11
:10289000C1F3261737074807590738F00E2E07F8F7
:1028A000E02569F0E025E0640AC0EF6307F80094D2
:1028B00007FADB01B9019D01DC01CA01AD01EF930B
:1028C00047D06DD10AD05F91552331F02BED3FE019
:1028D00049E450FD49EC63CF0895DF93DD27B92F1C
:1028E000BF7740E85FE31616170648075B0710F44A
:1028F000D92F93D19F938F937F936F93F8D1E8E66D
:10290000F0E01AD14CD12F913F914F915F9198D126
:10291000DD2349F09058A2EA2AED3FE049EC5FE35D
:10292000D0785D274DDFDF913AC1D9D008F481E03E
:1029300008950CD034C12CD140F023D130F021F4D3
:102940005F3F19F0F0C051115EC1F3C039D198F367
:102950009923C9F35523B1F3951B550BBB27AA2720
:1029600062177307840738F09F5F5F4F220F331F92
:10297000441FAA1FA9F333D00E2E3AF0E0E830D05E
:1029800091505040E695001CCAF729D0FE2F27D061
:10299000660F771F881FBB1F261737074807AB072F
:1029A000B0E809F0BB0B802DBF01FF2793585F4FA4
:1029B0002AF09E3F510568F0B6C025C15F3FECF399
:1029C000983EDCF3869577956795B795F7959F5F69
:1029D000C9F7880F911D9695879597F90895E1E0BD
:1029E000660F771F881FBB1F621773078407BA071C
:1029F00020F0621B730B840BBA0BEE1F88F7E09577
:102A0000089504D06894B111FEC00895E1D088F013
:102A10009F5790F0B92F9927B751A0F0D1F0660FCA
:102A2000771F881F991F1AF0BA95C9F712C0B130E5
:102A300081F0E8D0B1E00895E5C0672F782F8827AE
:102A4000B85F39F0B93FCCF3869577956795B39524
:102A5000D9F73EF490958095709561957F4F8F4F93
:102A60009F4F0895E89409C097FB3EF49095809598
:102A7000709561957F4F8F4F9F4F9923A9F0F92F44
:102A800096E9BB279395F695879577956795B795C2
:102A9000F111F8CFFAF4BB0F11F460FF1BC06F5FA8
:102AA0007F4F8F4F9F4F16C0882311F096E911C0BA
:102AB000772321F09EE8872F762F05C0662371F0DB
:102AC00096E8862F70E060E02AF09A95660F771FEF
:102AD000881FDAF7880F9695879597F90895990FCB
:102AE0000008550FAA0BE0E8FEEF16161706E807D8
:102AF000F907C0F012161306E407F50798F0621BF9
:102B0000730B840B950B39F40A2661F0232B242BCD
:102B1000252B21F408950A2609F4A140A6958FEFEC
:102B2000811D811D089597F99F6780E870E060E03E
:102B300008959FEF80EC0895DF93CF931F930F9339
:102B4000FF92EF92DF927B018C01689405C0DA2E30
:102B5000EF0176D0FE01E894A5912591359145913C
:102B60005591AEF3EF012CDEFE019701A801DA9436
:102B700079F7DF90EF90FF900F911F91CF91DF9148
:102B8000089500240A9416161706180609060895D3
:102B900000240A9412161306140605060895092E39
:102BA0000394000C11F4882352F0BB0F40F4BF2BA8
:102BB00011F460FF04C06F5F7F4F8F4F9F4F0895E8
:102BC00057FD9058440F551F59F05F3F71F04795DE
:102BD000880F97FB991F61F09F3F79F087950895C3
:102BE000121613061406551FF2CF4695F1DF08C0E2
:102BF000161617061806991FF1CF869571056105FF
:102C000008940895E894BB2766277727CB0197F9A6
:102C1000089565DF08F48FEF08959B01AC0160E033
:102C200070E080E89FE385CE0BD0B9CFAADF28F013
:102C3000AFDF18F0952309F076CF7BCF1124E3CFD7
:102C4000BFDFA0F3959FD1F3950F50E0551F629F12
:102C5000F001729FBB27F00DB11D639FAA27F00DF5
:102C6000B11DAA1F649F6627B00DA11D661F829F1C
:102C70002227B00DA11D621F739FB00DA11D621F01
:102C8000839FA00D611D221F749F3327A00D611D1E
:102C9000231F849F600D211D822F762F6A2F112400
:102CA0009F5750408AF0E1F088234AF0EE0FFF1F53
:102CB000BB1F661F771F881F91505040A9F79E3F8A
:102CC000510570F030CF9FCF5F3FECF3983EDCF3BF
:102CD000869577956795B795F795E7959F5FC1F7C7
:102CE000FE2B880F911D9695879597F908959B0166
:102CF000AC019ACFAA1BBB1B51E107C0AA1FBB1F87
:102D0000A617B70710F0A61BB70B881F991F5A9577
:102D1000A9F780959095BC01CD01089597FB072EEA
:102D200016F4009407D077FD09D00E947A1607FCAC
:102D300005D03EF4909581959F4F089570956195CB
:102D40007F4F0895A1E21A2EAA1BBB1BFD010DC0E7
:102D5000AA1FBB1FEE1FFF1FA217B307E407F5074B
:102D600020F0A21BB30BE40BF50B661F771F881F27
:102D7000991F1A9469F760957095809590959B01BD
:102D8000AC01BD01CF010895052E97FB1EF4009400
:102D90000E94DB1657FD07D00E94A21607FC03D045
:102DA0004EF40C94DB1650954095309521953F4F8D
:102DB0004F4F5F4F089590958095709561957F4F27
:102DC0008F4F9F4F08950E94F416A59F900DB49FBA
:102DD000900DA49F800D911D11240895EE0FFF1FEB
:102DE0000590F491E02D0994A29FB001B39FC0011A
:102DF000A39F700D811D1124911DB29F700D811D27
:102E00001124911D0895CF93DF938230910510F422
:102E100082E090E0E0916A02F0916B0220E030E005
:102E2000A0E0B0E0309739F140815181481759074F
:102E3000B8F04817590771F482819381109729F0EF
:102E400013969C938E9312972CC090936B02809351
:102E50006A0227C02115310531F04217530718F0D7
:102E6000A901DB0101C0EF019A01BD01DF01028070
:102E7000F381E02DD7CF21153105F9F0281B390B4F
:102E80002430310580F48A819B816115710521F020
:102E9000FB019383828304C090936B0280936A0248
:102EA000FE01329644C0FE01E20FF31F819391931D
:102EB00022503109398328833AC020916802309129
:102EC0006902232B41F420910201309103013093D8
:102ED00069022093680220910001309101012115BF
:102EE000310541F42DB73EB74091040150910501E1
:102EF000241B350BE0916802F0916902E217F30799
:102F0000A0F42E1B3F0B2817390778F0AC014E5F59
:102F10005F4F2417350748F04E0F5F1F509369022B
:102F2000409368028193919302C0E0E0F0E0CF010A
:102F3000DF91CF910895CF93DF93009709F487C075
:102F4000FC01329713821282C0916A02D0916B0207
:102F5000209781F420813181280F391F80916802E8
:102F6000909169028217930779F5F0936902E093D3
:102F700068026DC0DE0120E030E0AE17BF0750F4FC
:102F800012964D915C9113979D014115510509F1E0
:102F9000DA01F3CFB383A28340815181840F951F5F
:102FA0008A179B0771F48D919C911197840F951F3F
:102FB00002969183808312968D919C9113979383AF
:102FC00082832115310529F4F0936B02E0936A02A4
:102FD0003EC0D9011396FC93EE9312974D915D91EB
:102FE000A40FB51FEA17FB0779F480819181840F44
:102FF000951F0296D90111969C938E93828193819D
:1030000013969C938E931297E0E0F0E08A819B8167
:10301000009719F0FE01EC01F9CFCE01029628814C
:103020003981820F931F209168023091690228171D
:10303000390769F4309729F410926B0210926A02F2
:1030400002C013821282D0936902C0936802DF919A
:10305000CF910895A0E0B0E0E0E3F8E10C944D19C1
:10306000EC01CB01209719F40E940317B8C0FE01B0
:10307000E60FF71F9E0122503109E217F30708F40B
:10308000ACC0D9010D911C91119706171707B8F024
:103090000530110508F49FC0A80144505109461796
:1030A000570708F498C002501109061B170B01932B
:1030B00011936D937C93CF010E949B178CC05B0191
:1030C000A01AB10A4E01800E911EA0916A02B09121
:1030D0006B02612C712C60E070E0109709F449C01C
:1030E000A815B905C9F5ED90FC901197670142E06C
:1030F000C40ED11CCA14DB0478F147018A189B085E
:10310000640142E0C40ED11C1296BC901297139633
:10311000AC91B5E0CB16D10440F0B282A38391828A
:103120008082D9018D939C9309C00E5F1F4F0E0DB5
:103130001F1DF90111830083EB2DFA2F6115710515
:1031400031F0DB011396FC93EE93129744C0F09399
:103150006B02E0936A023FC06D917C9111976616F5
:10316000770608F43B01BD0112960D90BC91A02D8D
:10317000B4CF609168027091690268157905E9F42D
:1031800068167906D0F44091000150910101411573
:10319000510541F44DB75EB760910401709105018E
:1031A000461B570BE417F507C0F4F0936902E09350
:1031B0006802F901918380830EC00E9403177C018D
:1031C000009759F0A801BE010E94F918CE010E9493
:1031D0009B17C70104C0CE0102C080E090E0CDB7CC
:1031E000DEB7EEE00C94691981E090E0F8940C945D
:1031F0008019FB01DC0102C001900D92415050404A
:10320000D8F70895FB01DC0101900D920020E1F751
:1032100008954532510520F4423010F00C941419F1
:10322000FB011082CB010895BB274A3031F499236A
:1032300022F4BDE2909581959F4F0C942019BB27F5
:10324000FB015527AA27880F991FAA1FA41710F062
:10325000A41B83955051B9F7A05DAA3308F0A95D6E
:10326000A193009779F7B111B1931192CB010C940E
:103270003919DC01FC01672F71917723E1F732974F
:1032800004C07C916D9370836291AE17BF07C8F341
:1032900008952F923F924F925F926F927F928F92FA
:1032A0009F92AF92BF92CF92DF92EF92FF920F93D5
:1032B0001F93CF93DF93CDB7DEB7CA1BDB0B0FB6DF
:1032C000F894DEBF0FBECDBF09942A88398848889C
:1032D0005F846E847D848C849B84AA84B984C88432
:1032E000DF80EE80FD800C811B81AA81B981CE0F29
:1032F000D11D0FB6F894DEBF0FBECDBFED0108950E
:04330000F894FFCF6F
:1033040000006C02800028007C002C003C003E0081
:10331400290A00496E76616C69642073756273636F
:10332400726970740000000000100CA6137C0CEF8E
:103334000B620C940C00000000010FD40EA90EB116
:063344000EC40ED30E00C2
:00000001FF
